{
  "_format": "hh-sol-artifact-1",
  "contractName": "TokenFaucet",
  "sourceName": "contracts/TokenFaucet.sol",
  "abi": [
    {
      "inputs": [
        {
          "internalType": "address",
          "name": "token_",
          "type": "address"
        },
        {
          "internalType": "uint256",
          "name": "amount",
          "type": "uint256"
        }
      ],
      "name": "getTokens",
      "outputs": [],
      "stateMutability": "nonpayable",
      "type": "function"
    },
    {
      "inputs": [
        {
          "internalType": "address",
          "name": "",
          "type": "address"
        }
      ],
      "name": "latestWithdrawal",
      "outputs": [
        {
          "internalType": "uint256",
          "name": "",
          "type": "uint256"
        }
      ],
      "stateMutability": "view",
      "type": "function"
    }
  ],
  "bytecode": "0x608060405234801561001057600080fd5b50610adb806100206000396000f3fe608060405234801561001057600080fd5b50600436106100365760003560e01c80632c512d6e1461003b578063d8c7ddd114610057575b600080fd5b610055600480360381019061005091906104e8565b610087565b005b610071600480360381019061006c91906104bf565b61043e565b60405161007e91906106ca565b60405180910390f35b60328111156100cb576040517f08c379a00000000000000000000000000000000000000000000000000000000081526004016100c29061068a565b60405180910390fd5b62015180600160003373ffffffffffffffffffffffffffffffffffffffff1673ffffffffffffffffffffffffffffffffffffffff1681526020019081526020016000205461011991906106f6565b42101561015b576040517f08c379a0000000000000000000000000000000000000000000000000000000008152600401610152906106aa565b60405180910390fd5b816000806101000a81548173ffffffffffffffffffffffffffffffffffffffff021916908373ffffffffffffffffffffffffffffffffffffffff16021790555060008060009054906101000a900473ffffffffffffffffffffffffffffffffffffffff1673ffffffffffffffffffffffffffffffffffffffff166370a08231306040518263ffffffff1660e01b81526004016101f79190610626565b60206040518083038186803b15801561020f57600080fd5b505afa158015610223573d6000803e3d6000fd5b505050506040513d601f19601f82011682018060405250810190610247919061054d565b90508181101561028c576040517f08c379a00000000000000000000000000000000000000000000000000000000081526004016102839061066a565b60405180910390fd5b60008060009054906101000a900473ffffffffffffffffffffffffffffffffffffffff1673ffffffffffffffffffffffffffffffffffffffff1663313ce5676040518163ffffffff1660e01b815260040160206040518083038186803b1580156102f557600080fd5b505afa158015610309573d6000803e3d6000fd5b505050506040513d601f19601f8201168201806040525081019061032d9190610576565b905042600160003373ffffffffffffffffffffffffffffffffffffffff1673ffffffffffffffffffffffffffffffffffffffff1681526020019081526020016000208190555060008054906101000a900473ffffffffffffffffffffffffffffffffffffffff1673ffffffffffffffffffffffffffffffffffffffff1663a9059cbb3383600a6103bd919061079f565b866103c891906108bd565b6040518363ffffffff1660e01b81526004016103e5929190610641565b602060405180830381600087803b1580156103ff57600080fd5b505af1158015610413573d6000803e3d6000fd5b505050506040513d601f19601f820116820180604052508101906104379190610524565b5050505050565b60016020528060005260406000206000915090505481565b60008135905061046581610a49565b92915050565b60008151905061047a81610a60565b92915050565b60008135905061048f81610a77565b92915050565b6000815190506104a481610a77565b92915050565b6000815190506104b981610a8e565b92915050565b6000602082840312156104d157600080fd5b60006104df84828501610456565b91505092915050565b600080604083850312156104fb57600080fd5b600061050985828601610456565b925050602061051a85828601610480565b9150509250929050565b60006020828403121561053657600080fd5b60006105448482850161046b565b91505092915050565b60006020828403121561055f57600080fd5b600061056d84828501610495565b91505092915050565b60006020828403121561058857600080fd5b6000610596848285016104aa565b91505092915050565b6105a881610917565b82525050565b60006105bb6014836106e5565b91506105c6826109a8565b602082019050919050565b60006105de6016836106e5565b91506105e9826109d1565b602082019050919050565b60006106016025836106e5565b915061060c826109fa565b604082019050919050565b61062081610955565b82525050565b600060208201905061063b600083018461059f565b92915050565b6000604082019050610656600083018561059f565b6106636020830184610617565b9392505050565b60006020820190508181036000830152610683816105ae565b9050919050565b600060208201905081810360008301526106a3816105d1565b9050919050565b600060208201905081810360008301526106c3816105f4565b9050919050565b60006020820190506106df6000830184610617565b92915050565b600082825260208201905092915050565b600061070182610955565b915061070c83610955565b9250827fffffffffffffffffffffffffffffffffffffffffffffffffffffffffffffffff038211156107415761074061096c565b5b828201905092915050565b6000808291508390505b6001851115610796578086048111156107725761077161096c565b5b60018516156107815780820291505b808102905061078f8561099b565b9450610756565b94509492505050565b60006107aa82610955565b91506107b58361095f565b92506107e27fffffffffffffffffffffffffffffffffffffffffffffffffffffffffffffffff84846107ea565b905092915050565b6000826107fa57600190506108b6565b8161080857600090506108b6565b816001811461081e576002811461082857610857565b60019150506108b6565b60ff84111561083a5761083961096c565b5b8360020a9150848211156108515761085061096c565b5b506108b6565b5060208310610133831016604e8410600b841016171561088c5782820a9050838111156108875761088661096c565b5b6108b6565b610899848484600161074c565b925090508184048111156108b0576108af61096c565b5b81810290505b9392505050565b60006108c882610955565b91506108d383610955565b9250817fffffffffffffffffffffffffffffffffffffffffffffffffffffffffffffffff048311821515161561090c5761090b61096c565b5b828202905092915050565b600061092282610935565b9050919050565b60008115159050919050565b600073ffffffffffffffffffffffffffffffffffffffff82169050919050565b6000819050919050565b600060ff82169050919050565b7f4e487b7100000000000000000000000000000000000000000000000000000000600052601160045260246000fd5b60008160011c9050919050565b7f696e73756666696369656e742062616c616e6365000000000000000000000000600082015250565b7f616d6f756e742073686f756c64206265203c3d20353000000000000000000000600082015250565b7f6c657373207468616e2031206461792073696e6365206c61737420776974686460008201527f726177616c000000000000000000000000000000000000000000000000000000602082015250565b610a5281610917565b8114610a5d57600080fd5b50565b610a6981610929565b8114610a7457600080fd5b50565b610a8081610955565b8114610a8b57600080fd5b50565b610a978161095f565b8114610aa257600080fd5b5056fea2646970667358221220422b55b12f22ee483d843d231fbdd7c298b333e90687d01290cc4021c199f5be64736f6c63430008030033",
  "linkReferences": {},
  "deployedLinkReferences": {}
}